{
  "contractName": "TestContract",
  "abi": [
    {
      "inputs": [],
      "stateMutability": "nonpayable",
      "type": "constructor"
    },
    {
      "inputs": [],
      "name": "owner",
      "outputs": [
        {
          "internalType": "address",
          "name": "",
          "type": "address"
        }
      ],
      "stateMutability": "view",
      "type": "function",
      "constant": true
    },
    {
      "inputs": [],
      "name": "getString",
      "outputs": [
        {
          "internalType": "string",
          "name": "",
          "type": "string"
        }
      ],
      "stateMutability": "view",
      "type": "function",
      "constant": true
    },
    {
      "inputs": [
        {
          "internalType": "string",
          "name": "_testString",
          "type": "string"
        }
      ],
      "name": "setString",
      "outputs": [],
      "stateMutability": "nonpayable",
      "type": "function"
    }
  ],
  "bytecode": "0x60806040526040518060400160405280600a81526020017f74657374537472696e6700000000000000000000000000000000000000000000815250600190816200004a919062000319565b503480156200005857600080fd5b50336000806101000a81548173ffffffffffffffffffffffffffffffffffffffff021916908373ffffffffffffffffffffffffffffffffffffffff16021790555062000400565b600081519050919050565b7f4e487b7100000000000000000000000000000000000000000000000000000000600052604160045260246000fd5b7f4e487b7100000000000000000000000000000000000000000000000000000000600052602260045260246000fd5b600060028204905060018216806200012157607f821691505b602082108103620001375762000136620000d9565b5b50919050565b60008190508160005260206000209050919050565b60006020601f8301049050919050565b600082821b905092915050565b600060088302620001a17fffffffffffffffffffffffffffffffffffffffffffffffffffffffffffffffff8262000162565b620001ad868362000162565b95508019841693508086168417925050509392505050565b6000819050919050565b6000819050919050565b6000620001fa620001f4620001ee84620001c5565b620001cf565b620001c5565b9050919050565b6000819050919050565b6200021683620001d9565b6200022e620002258262000201565b8484546200016f565b825550505050565b600090565b6200024562000236565b620002528184846200020b565b505050565b5b818110156200027a576200026e6000826200023b565b60018101905062000258565b5050565b601f821115620002c95762000293816200013d565b6200029e8462000152565b81016020851015620002ae578190505b620002c6620002bd8562000152565b83018262000257565b50505b505050565b600082821c905092915050565b6000620002ee60001984600802620002ce565b1980831691505092915050565b6000620003098383620002db565b9150826002028217905092915050565b62000324826200009f565b67ffffffffffffffff81111562000340576200033f620000aa565b5b6200034c825462000108565b620003598282856200027e565b600060209050601f8311600181146200039157600084156200037c578287015190505b620003888582620002fb565b865550620003f8565b601f198416620003a1866200013d565b60005b82811015620003cb57848901518255600182019150602085019450602081019050620003a4565b86831015620003eb5784890151620003e7601f891682620002db565b8355505b6001600288020188555050505b505050505050565b61072580620004106000396000f3fe608060405234801561001057600080fd5b50600436106100415760003560e01c80637fcaf6661461004657806389ea642f146100625780638da5cb5b14610080575b600080fd5b610060600480360381019061005b91906102c1565b61009e565b005b61006a6100b1565b6040516100779190610389565b60405180910390f35b610088610143565b60405161009591906103ec565b60405180910390f35b80600190816100ad919061061d565b5050565b6060600180546100c090610436565b80601f01602080910402602001604051908101604052809291908181526020018280546100ec90610436565b80156101395780601f1061010e57610100808354040283529160200191610139565b820191906000526020600020905b81548152906001019060200180831161011c57829003601f168201915b5050505050905090565b60008054906101000a900473ffffffffffffffffffffffffffffffffffffffff1681565b6000604051905090565b600080fd5b600080fd5b600080fd5b600080fd5b6000601f19601f8301169050919050565b7f4e487b7100000000000000000000000000000000000000000000000000000000600052604160045260246000fd5b6101ce82610185565b810181811067ffffffffffffffff821117156101ed576101ec610196565b5b80604052505050565b6000610200610167565b905061020c82826101c5565b919050565b600067ffffffffffffffff82111561022c5761022b610196565b5b61023582610185565b9050602081019050919050565b82818337600083830152505050565b600061026461025f84610211565b6101f6565b9050828152602081018484840111156102805761027f610180565b5b61028b848285610242565b509392505050565b600082601f8301126102a8576102a761017b565b5b81356102b8848260208601610251565b91505092915050565b6000602082840312156102d7576102d6610171565b5b600082013567ffffffffffffffff8111156102f5576102f4610176565b5b61030184828501610293565b91505092915050565b600081519050919050565b600082825260208201905092915050565b60005b83811015610344578082015181840152602081019050610329565b60008484015250505050565b600061035b8261030a565b6103658185610315565b9350610375818560208601610326565b61037e81610185565b840191505092915050565b600060208201905081810360008301526103a38184610350565b905092915050565b600073ffffffffffffffffffffffffffffffffffffffff82169050919050565b60006103d6826103ab565b9050919050565b6103e6816103cb565b82525050565b600060208201905061040160008301846103dd565b92915050565b7f4e487b7100000000000000000000000000000000000000000000000000000000600052602260045260246000fd5b6000600282049050600182168061044e57607f821691505b60208210810361046157610460610407565b5b50919050565b60008190508160005260206000209050919050565b60006020601f8301049050919050565b600082821b905092915050565b6000600883026104c97fffffffffffffffffffffffffffffffffffffffffffffffffffffffffffffffff8261048c565b6104d3868361048c565b95508019841693508086168417925050509392505050565b6000819050919050565b6000819050919050565b600061051a610515610510846104eb565b6104f5565b6104eb565b9050919050565b6000819050919050565b610534836104ff565b61054861054082610521565b848454610499565b825550505050565b600090565b61055d610550565b61056881848461052b565b505050565b5b8181101561058c57610581600082610555565b60018101905061056e565b5050565b601f8211156105d1576105a281610467565b6105ab8461047c565b810160208510156105ba578190505b6105ce6105c68561047c565b83018261056d565b50505b505050565b600082821c905092915050565b60006105f4600019846008026105d6565b1980831691505092915050565b600061060d83836105e3565b9150826002028217905092915050565b6106268261030a565b67ffffffffffffffff81111561063f5761063e610196565b5b6106498254610436565b610654828285610590565b600060209050601f8311600181146106875760008415610675578287015190505b61067f8582610601565b8655506106e7565b601f19841661069586610467565b60005b828110156106bd57848901518255600182019150602085019450602081019050610698565b868310156106da57848901516106d6601f8916826105e3565b8355505b6001600288020188555050505b50505050505056fea2646970667358221220931c668d5480ee6ef669b7c84f5ba22697cfb2cc07ffc9b1a3f8efd0aa26ca0864736f6c63430008100033",
  "immutableReferences": {},
  "source": "// SPDX-License-Identifier: MIT\npragma solidity >=0.7.0 <0.9.0;\n\ncontract TestContract {\n  address public owner;\n  string private testString = \"testString\";\n\n  constructor() public {\n    owner = msg.sender;\n  }\n\n  function getString() public view returns (string memory) {\n    return testString;\n  }\n\n  function setString(string memory _testString) public {\n    testString = _testString;\n  }\n}\n",
  "sourcePath": "/Users/ikennaemeruche/Documents/truffle-nextjs-recoil/truffle/contracts/TestContract.sol",
  "compiler": {
    "name": "solc",
    "version": "0.8.16+commit.07a7930e.Emscripten.clang"
  },
  "schemaVersion": "3.4.9",
  "updatedAt": "2023-08-08T22:46:01.692Z",
  "networkType": "ethereum",
  "devdoc": {
    "kind": "dev",
    "methods": {},
    "version": 1
  },
  "userdoc": {
    "kind": "user",
    "methods": {},
    "version": 1
  }
}